:1000000023C03DC03CC03BC03AC0B5C138C037C0BA
:1000100036C035C034C033C032C031C030C0010238
:100020000000040000000000010204081020200469
:100030001008020202020202020202020000000094
:10004000380000000000370011241FBECFE5D2E0C9
:10005000DEBFCDBF10E0A0E6B0E0E4ECF8E002C007
:1000600005900D92A836B107D9F720E0A8E6B0E0D8
:1000700001C01D92A337B207E1F71ED321C4C0CF40
:100080000F931F93CF93DF9308E610E061E0F80130
:10009000808175D2C6E6D0E061E0888170D261E0EF
:1000A000F8018081A8D268EE73E080E090E0D3D1BF
:1000B00060E0F80180819FD268EE73E080E090E01C
:1000C000CAD160E0888197D268EE73E080E090E06A
:1000D000C2D161E088818FD268EE73E080E090E069
:1000E000BAD160E0F801808186D261E08881DF9139
:1000F000CF911F910F917FC24F925F926F927F922B
:10010000BF92CF92DF92EF92FF920F931F93CF9304
:10011000DF9322E030E040E050E060E070E0CB01AF
:10012000AED26230710508F00FC1EB012097F1F4F7
:10013000B090680000E010E0EE24EA94F12C809189
:1001400064009091650008171907D4F4C130D105F7
:10015000A9F4B701601B710B8B2DBAD165E070E07B
:1001600080E090E078D10F5F1F4FE9CF61307105DB
:1001700019F4B0906600DECFB12CDCCFB801ECCF23
:100180002CED35E040E050E06AEF70E080E090E078
:1001900076D27B0100E010E0CC24CA94D12C60918F
:1001A000640070916500E016F106F4F09B01072EE3
:1001B000000C440B550B62537109072E000C880B81
:1001C000990B5DD29B01C130D10519F49601261B14
:1001D000370BB9018B2D7CD165E070E080E090E0B9
:1001E0003AD10B5F1F4FDBCF8B018FEF90E07C018B
:1001F000E61AF70A17FD13C0C130D10571F4B70133
:100200008B2D66D162E070E080E090E024D1015057
:1002100011092FEFE21AF20AEDCFB801F1CF2CED60
:1002200035E040E050E06AEF70E080E090E027D2F7
:100230007B0100E010E0CC24CA94D12CE016F1063A
:10024000D4F02CE030E040E050E060E070E0CB0122
:1002500016D29B01C130D10519F49601261B370B2C
:10026000B9018B2D35D165E070E080E090E0F3D0EE
:100270000B5F1F4FE3CF209709F044C060E070E0B0
:100280008B2D26D1C6D22B013C0121E042225524E0
:100290006624772460FD58C0E12CF12C0FEF10E0AC
:1002A0008091640090916500E816F90694F1CC24E1
:1002B000CA94D12C25E030E040E050E061E070E0ED
:1002C00080E090E0DCD14616570668067906E4F532
:1002D00000916400109165007601E01AF10A17FDA3
:1002E0002DC0C130D10541F5B7018B2DF1D065E0AE
:1002F00070E080E090E0AFD0015011092FEFE21ADA
:10030000F20AEDCFC130D10509F0BCCF6FEF70E03C
:10031000B7CFC130D10571F4B8016E197F098B2DAB
:10032000D7D065E070E080E090E095D08FEFE81ADC
:10033000F80AB6CFB701F3CFB801D7CF8FEF481A7D
:10034000580A680A780AB6CF28E93AE340E050E054
:1003500064EC79E080E090E092D1DF91CF911F9141
:100360000F91FF90EF90DF90CF90BF907F906F90B4
:100370005F904F9070C01F920F920FB60F92112492
:100380002F933F938F939F93AF93BF9380916B0075
:1003900090916C00A0916D00B0916E0030916A0058
:1003A00020E3230F2D3758F54096A11DB11D209352
:1003B0006A0080936B0090936C00A0936D00B093E3
:1003C0006E0080916F0090917000A0917100B091CB
:1003D00072000196A11DB11D80936F009093700073
:1003E000A0937100B0937200BF91AF919F918F91D4
:1003F0003F912F910F900FBE0F901F90189523EBF8
:10040000230F4196A11DB11DD2CF3FB7F894809123
:100410006F0090917000A0917100B091720022B7AE
:1004200008B601FE05C02F3F19F00196A11DB11DB0
:100430003FBFBA2FA92F982F8827BC01CD01620F8B
:10044000711D811D911D46E0660F771F881F991F42
:100450004A95D1F70895CF92DF92EF92FF92CF9312
:10046000DF936B017C01D1DFEB01C114D104E10406
:10047000F10439F4DF91CF91FF90EF90DF90CF90AE
:10048000089524D1C2DF6C1B7D0B683E734068F376
:1004900081E0C81AD108E108F108C851DC4FE5CF66
:1004A00078948AB582608ABD8AB581608ABD83B737
:1004B000826083BF83B7816083BF89B7826089BF51
:1004C00080B7826080BF3298319A309A379A089507
:1004D0001F93CF93DF93182FEB0161E050D020974B
:1004E00031F460E0812FDF91CF911F9184C0CF3F25
:1004F000D10511F461E0F6CFE12FF0E0E25EFF4FAD
:10050000E491E230C1F030F4E13069F0C038D10557
:100510008CF7E7CFE330A1F0E430C1F78CB580620F
:100520008CBDCBBD04C08AB580688ABDC9BDDF91D2
:10053000CF911F9108958AB580628ABDC8BDF7CF5B
:100540008CB580628CBDCEBDF2CF823089F018F4BC
:10055000813051F00895833019F0843009F0089506
:100560008CB58F7D8CBD08958AB58F778ABD08952F
:100570008AB58F7DFBCF8CB580648CBD0895CF93F9
:10058000DF9390E0FC01E85DFF4F24918E5C9F4F6C
:10059000FC0184918823C9F090E0880F991FFC0129
:1005A000EE5BFF4FA591B491FC01E45CFF4FC59158
:1005B000D49161110DC09FB7F8948C91209582233E
:1005C0008C938881282328839FBFDF91CF91089542
:1005D000623051F49FB7F8943C91822F8095832329
:1005E0008C93E8812E2BEFCF8FB7F894EC912E2BC4
:1005F0002C938FBFEACF1F93CF93DF93162F282F13
:1006000030E0F901E25EFF4F8491F901E85DFF4FB0
:10061000D491F901EE5CFF4FC491CC2399F0811184
:1006200094DFEC2FF0E0EE0FFF1FE45CFF4FA5918D
:10063000B4918FB7F894EC91111108C0D095DE23D6
:10064000DC938FBFDF91CF911F910895DE2BF8CF00
:10065000CF92DF92EF92FF926B017C01672B682BA8
:10066000692B31F0D6D0A70196014AD06B017C01ED
:10067000C701B601FF90EF90DF90CF900895CF9221
:10068000DF92EF92FF926B017C0162177307840780
:1006900095075CF4CA01B9016C197D098E099F099F
:1006A000D7DFC60ED71EE81EF91EC701B601FF90A0
:1006B000EF90DF90CF900895F3DE5DDFE1DCC0E0E6
:1006C000D0E01ADD2097E9F39BDCFBCF0895EE27FD
:1006D000FF27AA27BB2708C0A20FB31FE41FF51FDF
:1006E000220F331F441F551F969587957795679561
:1006F00098F37040A9F7009799F7BD01CF010895CD
:10070000052E97FB16F400940FD057FD05D014D09A
:1007100007FC02D046F408C05095409530952195CD
:100720003F4F4F4F5F4F089590958095709561951D
:100730007F4F8F4F9F4F0895A1E21A2EAA1BBB1B1C
:10074000FD010DC0AA1FBB1FEE1FFF1FA217B3079D
:10075000E407F50720F0A21BB30BE40BF50B661FB3
:10076000771F881F991F1A9469F760957095809577
:1007700090959B01AC01BD01CF0108958F929F928E
:10078000AF92BF92CF92DF92EF92FF92CF93DF931F
:10079000EC01688179818A819B81611571058105F0
:1007A000910521F464E279ED8BE597E02DE133EFDB
:1007B00041E050E0A5DF49015A0127EA31E440E079
:1007C00050E085DF6B017C012CEE34EF4FEF5FEFE3
:1007D000C501B4017CDFC60ED71EE81EF91EF7FE68
:1007E00006C081E0C81AD108E10880E8F80AC8828A
:1007F000D982EA82FB82C701B6019F77DF91CF9150
:10080000FF90EF90DF90CF90BF90AF909F908F9030
:1008100008958F929F92AF92BF92CF92DF92EF9204
:10082000FF926091600070916100809162009091F0
:100830006300611571058105910521F464E279ED8C
:100840008BE597E02DE133EF41E050E059DF4901BE
:100850005A0127EA31E440E050E039DF6B017C01C6
:100860002CEE34EF4FEF5FEFC501B40130DFC60E61
:10087000D71EE81EF91EF7FE06C081E0C81AD1088F
:10088000E10880E8F80AC0926000D0926100E0922E
:100890006200F0926300C701B6019F77FF90EF906E
:1008A000DF90CF90BF90AF909F908F90089560930E
:1008B00060007093610080936200909363000895DC
:0408C000F894FFCFDA
:0808C4000100000080000100AA
:00000001FF
